:020000021000EC
:1000000040390020E5220100AFC70100D1220100E4
:10001000D1220100D1220100D12201000000000004
:100020000000000000000000000000001D2301008F
:10003000D1220100000000001D250100D122010095
:1000400095250100657101009525010095250100A8
:1000500095250100952501009525010095250100B4
:1000600095250100952501009525010095250100A4
:100070009525010095250100952501009525010094
:100080009525010095250100952501009525010084
:100090009525010095250100952501009525010074
:1000A0009525010095250100952501009525010064
:1000B0009525010095250100952501009525010054
:1000C0009525010095250100952501009525010044
:1000D0009525010095250100952501009525010034
:1000E0009525010095250100952501009525010024
:1000F0009525010095250100952501009525010014
:1001000053B94AB9002908BF00281CBF4FF0FF317E
:100110004FF0FF3000F00CB8ADF1080C6DE904CEE3
:1001200000F018F8DDF804E0DDE9022304B07047C0
:10013000704700BF034611F8012B03F8012B002A7A
:10014000F9D17047034613F8012B002AFBD1181A86
:10015000013870472DE9F0478C468E46089E1546BB
:1001600004461946002B40F0D080724547D9B2FAB8
:1001700082F74FB1C7F120030EFA07FC20FA03F310
:10018000BD4043EA0C0CBC404FEA154EA8B2BCFB84
:10019000FEF8230C0EFB18CC08FB00F943EA0C43D5
:1001A000994528D9EB1808F1FF3204D2994502D9B4
:1001B000A8F102022B44A3EB0903A4B2B3FBFEFC9B
:1001C0000EFB1C330CFB00F044EA0344A04214D99C
:1001D0002C190CF1FF3304D2A04202D9ACF1020376
:1001E0002C44241A43EA02401EB1FC400023346030
:1001F0007360BDE8F0874246DDE76346F1E7002A19
:1002000079D0B2FA82F3002B3FD01946C1F1200316
:1002100002FA01F52EFA03F20EFA01FE20FA03F3B8
:1002200043EA0E034FEA154E00FA01F4B2FBFEFC5E
:10023000AFB20EFB1C201A0C0CFB07F842EA00427E
:1002400090455AD9AA180CF1FF3004D2904502D932
:10025000ACF102002A44A2EB08029BB2B2FBFEFC06
:100260000EFB1C220CFB07F743EA02439F4246D9D0
:10027000EB180CF1FF3204D29F4202D9ACF102021A
:100280002B44DB1B42EA004202E0AEEB02030122F8
:100290004FEA154EAFB2B3FBFEFC200C0EFB1C3335
:1002A0000CFB07F840EA034398452AD9EB180CF1F8
:1002B000FF3004D2984502D9ACF102002B44A3EBE5
:1002C0000803A4B2B3FBFEFC0EFB1C330CFB07F7C8
:1002D00044EA0344A74216D92C190CF1FF3304D287
:1002E000A74202D9ACF102032C44E41B43EA0040CC
:1002F0000F46114678E71F2188E76046ABE7624664
:10030000BFE76046DBE76346EFE7734506D916B9FA
:10031000002108466DE7C6E9000EF9E7B3FA83F756
:1003200087B9734501D3824207D8841A6EEB030361
:1003300001209C461EB900215BE73846FAE7C6E972
:10034000004CF8E7C7F1200CBB4022FA0CF51D4326
:1003500020FA0CF12EFA0CF30EFA07FE41EA0E0118
:100360004FEA154900FA07F4B3FBF9F81FFA85FEC6
:1003700009FB18300B0C08FB0EFA43EA00439A45C0
:1003800002FA07F240D9EB1808F1FF3004D29A457F
:1003900002D9A8F102002B44A3EB0A0389B2B3FBF4
:1003A000F9F809FB183308FB0EFE41EA03418E45BC
:1003B0002CD9691808F1FF3304D28E4502D9A8F16F
:1003C0000203294443EA0040A0FB0298A1EB0E017E
:1003D0004145CE46434602D306D14C4504D2B9EB43
:1003E000020E68EB05030138002EA4D0B4EB0E0218
:1003F00061EB030101FA0CFC22FA07F34CEA030358
:10040000F940C6E9003196E74046C5E74346D9E7DB
:100410002DE9F041684C94F832308CB003F00103C0
:10042000002800F09580002B40F08480627E94F8D4
:10043000253004EB820204EB8303D5699E6A0DB379
:100440002F4617F8020BC0F3801005F0CBFB0368B2
:10045000C5F802308388BB802B785B0606D5062161
:10046000384604F0D3F8002800F09780374617F894
:10047000020BC0F3801005F0B5FB0368C6F802302C
:100480008388BB80237D0121C3F302030BA88DF871
:100490002C3004F02BFA0246002855D0314628466D
:1004A00006F0E6FB454A464B278E07210025E0FB78
:1004B00002311846C4E902553DA3D3E90023257053
:1004C000FFF71EFE606005F063FB0694029562680C
:1004D0003C4B049200F109063B4802F247121A60B5
:1004E00091210993A7FB000301FB0731374B0793C9
:1004F000374B05934FF6FF734FF002080AAF039393
:100500002BA3D3E90023CDF828800897FFF7F8FD47
:100510000321CDE9005033464246284605F094FABF
:10052000394605F095FD78B994F8323043F001036F
:1005300084F8323000200CB0BDE8F0811E4805F090
:10054000A5FD844200D000DE0C200CB0BDE8F08197
:10055000002BEFD0204605F08DFD84421FD10BAD5E
:1005600002220321194B009500200B9205F0DAFAC4
:10057000294605F06DFD0028E0D1164805F098FDEC
:1005800088B90D4805F082FD84420AD194F83230D2
:1005900023F0010384F83230CCE71220CBE700DEF1
:1005A000DDE700DEF2E77830EBD000DEE9E700BF00
:1005B0008D49FD1A070000000016002000CA9A3B72
:1005C0008C49FD1AF4150020002AE784595C0100CB
:1005D000E96C01001016002070B5037D8AB0C3F3EA
:1005E00002030D46044601210DF1230016468DF845
:1005F000233004F07BF931460246284606F038FBEA
:100600001D4A1E4B0721E0FB0231184618A3D3E90F
:100610000023FFF775FD63689842054621D21B1A37
:1006200000220192164A0293164BA21AA3FB023231
:100630000221120900230A4409AE099112490591C9
:10064000CDE9033303210696D2B20093184605F094
:1006500051FA314605F0FCFC38B9656000200AB05B
:1006600070BDFBD9C21A0023DBE70C200AB070BDB5
:100670008D49FD1A0700000000CA9A3B8C49FD1AFB
:10068000001600204FECC44E595C01000000000031
:10069000F0B583B0C468054607F008FD002007F0F8
:1006A00029FD0021084607F017FD0022252108201A
:1006B00007F07EFD304B019301A807F065FD2F493F
:1006C00040F25B6007F00EFE2279134662F3C50329
:1006D0002371204607F04CFB27682E68384607F048
:1006E00011F806446A6806F10901012007F01AFFB3
:1006F00007F0A8FF204606F04DFC811C3246C9B227
:10070000384607F001F840B9204606F0D7FF10B987
:10071000002003B0F0BD00DEFAE70546184A19498B
:10072000194840F211430BF026FB184B0721A5FB9B
:10073000030301FB05310EA3D3E90023FFF7E0FC1F
:100740001349024613480BF016FB002585F3118868
:10075000BFF36F8F0323184602DF0F48214607F0CF
:1007600079FC07F069FD6FF08B00D2E7AFF30080F2
:1007700000CA9A3B00000000D6BE898E5555550030
:10078000A0E30100ECE30100F0E301008D49FD1A54
:100790003CE4010010E40100257A010013B5224871
:1007A0000CF054FEB0B1214A1F4806210BF037F976
:1007B0001D480CF04BFE68B11B481C4A06210BF08B
:1007C0002EF9002003F014F940B1194A194801210B
:1007D0000BF013FF6FF0120002B010BD164A15485F
:1007E000032101240BF009FF144B1549154800940F
:1007F000022203F075FD034628B1134A0D48214635
:100800000BF004FFE6E7114A0A4803210BF0F5FE5E
:100810000F4A084803210BF0F0FE00214FF400407E
:100820000DF0AFF8F4E700BF9CDD010001001A00F5
:10083000F8E40100ECDF010019E501001CE1010012
:1008400024E1010008E1010029E501004BE5010078
:1008500064E501002DE9F84F8A4600AF002974D005
:1008600004680E1F361BF50826F0070604EB060881
:10087000B8F802B01BF0010B16D1E94688B06A4601
:10088000334BCDE90531032342F8103F31485B4635
:100890004FF4C25100F0AEFFCD468BF31188BFF389
:1008A0006F8F0423184602DF294620460BF0D2F84A
:1008B000284434F83030C01A854217D0E94688B051
:1008C0006A46254BCDE9053A032342F8103F2148FB
:1008D00000234FF4C25100F08DFF0023CD4683F377
:1008E0001188BFF36F8F0423184602DFB8F8023077
:1008F00023F00103A8F80230294620460BF0AAF89D
:1009000005EB000804EBC8035B88DA0708D441460E
:1009100020460BF0E8F84246294620460BF028F91D
:10092000A65BAE1B04EBC6035B88DB0709D431462C
:1009300020460BF0D8F82A46314620460BF018F92D
:100940003546294620460BF08AF8BD46BDE8F88FAB
:10095000EDE501007CE00100C4E501002DE9F04F68
:1009600091B08407009302F004030293C2F3C20320
:1009700003F10103DDF868A0039205460E460593D6
:1009800040F09D81041D00284AD101F00706341D66
:10099000C6F10806009B00275A1E4FF004084FF0CE
:1009A000FF3301930497B946BB4643460DB1009906
:1009B00021600598002800F3D78090480099814273
:1009C00003D38F488142C0F0CF80039911F0020C0D
:1009D000A4EB050040F0D680B9F10F0F00F2CF80F4
:1009E000002D00F0D68009F140010DEB010EC0F39F
:1009F000870001990EF8200C0EF8101CBCF1000FB6
:100A000000F0C38060F07F000EF8200C013709F180
:100A10000109C5F10801043406914FF6DA7E8CE035
:100A20000729B7D86FF01B0011B0BDE8F08F7A2806
:100A30005BD84B280FD8472857D829282ED82528E7
:100A400050D052D8202818BF23280CBF4FF0010BDC
:100A50004FF0000B71E04C382E2846D8DFE800F04C
:100A60006D4545454545454545454545484545450B
:100A70004545454545564548485656566D486A458C
:100A80006D4518481845457F7C48454548457C00DC
:100A900000204FF0000B4FF0040835E02A38C0B2B8
:100AA000012101FA00F010EA0E0F46D110F0625C4D
:100AB0002CD110EA010B40D06046013C4444B4FB09
:100AC000F8F408FB04F425B1A3EB050CA444B445E9
:100AD000A8D8002870D00599013905915AF8041B4F
:100AE000009163E70199013901914FF0000B24E077
:100AF00012F8010C6C2834D112F8023C00206C2B47
:100B00008346C8D14FF008084346D6E70AF1070AE2
:100B10002AF0070A0734FAE802BC24F0070435B1CA
:100B200006982044B0423FF67DAFC4E900BC0834CB
:100B30004FF0000B4FF00808434612F8010F002851
:100B400053D0BBF1000F7FF472AF2528F5D1019B84
:100B5000013301934FF0010B4FF00408ECE75846C6
:100B600097E700208346A8E7039988077FF551AFF0
:100B7000601B4FF0010CB0F5007FFFF42DAF6FF05C
:100B8000150051E74FF0000CF5E704980130049090
:100B90003DE7BCF1000F01D0013638E7029802367C
:100BA00000287FF434AF0098CDE90632FFF7CAFA87
:100BB000DDE9063206442AE7042B08D10AF10400D5
:100BC00015B1DAF80010216004348246B5E70AF165
:100BD000070323F0070303F1080A1DB1D3E900015D
:100BE000C4E9000108340823A7E7631BB3F5806F4D
:100BF000C5D23DB9A6F10804E01815E7ECDC010008
:100C000080F60100029A28609B082B709DF8103036
:100C1000AAB1EB70AF702FB108A80022C5F1010C8A
:100C200091450ED1C5F101030DF120084FF0000AE6
:100C300001930DF1300BD14512D1601BF4E66B70BE
:100C4000E8E710F8013B190608D50CEB040EB64591
:100C500003F07F033FF6E6AE04F8013B0132DFE725
:100C60001FB198F90020002A17DB029BD3B11AF8B4
:100C70000B2004F8012B0022019B18191044B042EC
:100C80003FF6D0AE98F8000004F8010B00990392EB
:100C900020460CF07CFF039A14440AF1010A08F183
:100CA0000108C8E798F8002055F822300093029B0D
:100CB00045F822300098FFF745FA421CDCE76FF058
:100CC0000D00B1E62DE9F04F97B000AFC7E90A3249
:100CD00005468A4649B903784678807800EB830058
:100CE0002844564524D8A0EB050AD7F8803095F85B
:100CF0000280D7F8804003F00103FB61EB787B6250
:100D0000B8F1000F0CBF002404F001041BB1D7F8A8
:100D100080309A0715D4A4B9FB6A1BB1BA6A514650
:100D200028469847564630465C37BD46BDE8F08FAA
:100D3000441C2046FFF706FA013020440AF1010A5C
:100D4000CFE7D7F88030C3F3C0033B622B78BB6199
:100D50009B003B616B687B61BB6905EB830BFB6AA6
:100D6000002B77D15646D844BCB11C461BF8013B3A
:100D700055F82300FFF7E6F9D7F88430013043B186
:100D8000D7F88830A34282BFD7F8843023F8140004
:100D90000134C3450644E9D1D846D7F8803013F072
:100DA000050F0CBF4FF0020B4FF0010B4FF0000985
:100DB0007B6A9945B7D298F8013055F823A0AE4B1D
:100DC0009A4508F10208C0F04B81AC4B3A6A9A454B
:100DD0002CBF002301230AB318F8021C7869FB62B8
:100DE0000AF09BFFFB6AC8B1EA468AB06A46A44B88
:100DF00005937B69CDE906314FF40073ADF82030DF
:100E0000A04B42F8103FA04800234FF4125100F0CD
:100E1000F1FC023ED54609F10109C9E723B1FB699E
:100E200033B9A6EB0B06F6E7D7F880309B07F2D56F
:100E30005046FFF787F9D7F884304BB1D7F88830A0
:100E40009C423FBFD7F88420431C22F81430013461
:100E50000644E0E7002C69D1B8F1000F6CD0D7F858
:100E6000803058076BD5C14607F1480042465946C5
:100E70000CF08DFE0BEB0803FB6000220233796A55
:100E80008A425ED3D7F8802095F801B0F9699207BD
:100E900004EB0B03DBB254BF4FEA590200220029D6
:100EA00040F0A680D7F8801011F0040F14BF494617
:100EB00000216B70A970EA703969BA6AFB6A28462A
:100EC0009847061EFFF62FAFBB692B707B6AEB704D
:100ED0004946BA6AFB6A85F801B085F8028007F1D5
:100EE00048009847B0F10009C0F2B6803B697A6AC1
:100EF000786A03EB4201FB68BA6A414403EB4000A5
:100F0000AAEB0101FB6A98470028C0F2A780B14410
:100F100009EB00064FF0000B07F1380AA34569D32F
:100F20000021BA6AFB6A08469847FCE6444607F186
:100F300038004FF0000999E74446C1469AE7A146B8
:100F400098E713F8016CDFF830C155F8260013F864
:100F5000021C6045C0F08A80DFF820C16045386A15
:100F60002CBF4FF0000B4FF0010B38B17869C7E987
:100F700001320AF0D2FED7E90132F0B9BBF1000F1D
:100F80001ED0F96949B1611C04F1280007F1300451
:100F9000041904F8206CCCB20FE0D7F88010490790
:100FA0000BD509F1280007F1300C09F1010100EB24
:100FB0000C0909F8106C5FFA81F9013202335EE71F
:100FC000D7F880008007DED409F1280C07F1300E35
:100FD000F44409F101000CF8101C07F1580151FA12
:100FE00080F009F102095FFA89F900F8106CE4E772
:100FF00000215EE71BF80A3087F8373055F8239058
:10100000D7F884302BB3D7F888309B4521D2D7F856
:10101000843033F81B80BA6AFB6A012107F137007C
:10102000984700281ADB0644B8F1000F06D148465D
:10103000FFF788F800F101081FFA88F8BA6AFB6A1E
:10104000414648469847002808DB06440BF1010B4F
:1010500064E74FF00008DEE74E4664E6064662E6C7
:101060003B6A002B3FF4E0AE0023B5E6386A002867
:10107000A6D04FF0000B79E7ECDC010080F6010010
:101080001AE601000400000134E00100014B186081
:10109000704700BF2801002080B505460E46174660
:1010A000984609F0AFFE034601F086FADFF8189083
:1010B000044649F80030424630463946A84754F8BD
:1010C000090001F015FA00BF080000002DE9F04703
:1010D000058B0446280717460CD501290CBF45F09F
:1010E000100545F02005258387F31188BFF36F8F26
:1010F000BDE8F087022905F0070540F094802046FE
:101100000BF0CCF8052864D801A353F820F000BFF9
:10111000E910010027120100D3110100951101000F
:10112000AF110100C111010001F007035A1F012A8C
:101130001FD8002221F00701062BD4F8008089B2C5
:10114000C4E9002209D1434603E0628B0132628385
:101150001B68002BF9D141F00201218320460BF0DE
:101160009DF84FF0000900286DD041F02001218347
:1011700069E0042B0AD121F0070189B221832046BE
:101180000BF08CF810B141F0200121834FF00008E2
:10119000C14658E02369D3F80090238B23F007035E
:1011A00043F0060323834FF0000846464BE02369D3
:1011B000D3F80490238B23F0070343F00403F1E7F3
:1011C0002369D3F80890238B23F0070343F005032A
:1011D000E8E74FF00008C146E7E7012243F00803C3
:1011E000238387F31188BFF36F8F002A3BD1B8F1B7
:1011F000000F4AD1B9F1000F02D02D492046C8474F
:10120000EFF31187202383F31288BFF36F8F238BB3
:1012100023F008039BB22383D9063FD523F01002A5
:10122000228303F007056669218B002EBFF67CAF91
:101230000023D4F8008021F00701C4E9003341F015
:10124000010121839946238B03F0070AAA4502D0A6
:10125000A268002AC1D1B8F1000F02D1B9F1000F84
:10126000DAD00022BAE7A1680029C0D00D680029B1
:10127000BDD04F68334652462046B8471DB12B6853
:1012800029461D46F3E72B46FAE7414633465246C8
:101290002046D8F800800BF02DF8A8E79A067FF5D5
:1012A00023AF23F02002228303F0070527E700BFC6
:1012B00021C301002DE9F047DFF8548004460746BA
:1012C0004FF0010994FAA4F5B5FA85F509FA05F38A
:1012D0002E0108EB05156FEA030A24EA03042B7BB1
:1012E00063B158F806301B696BB946440422736831
:1012F0002846196807EA0A070BF00FF9002CE1D11C
:101300003846BDE8F087284698470028F6D1ECE734
:1013100094E0010010B50F490F4888B000220CF08E
:1013200023FC00220023CDE9062300240E23CDE96F
:101330000334CDE90144094B094900944FF440724C
:10134000084809F053FB084906480CF059FA2046B2
:1013500008B010BD6D130100600800209D1601004B
:1013600040190020D8030020D9E60100014809F007
:10137000E5B800BF340300202DE9F047804621483E
:101380000F460BF0AAF80646002833D00025284661
:10139000BDE8F087237B83B12368DB680BB120466F
:1013A0009847636883F8069023681B69D3B963681C
:1013B0000422196820460BF0B0F801361034544569
:1013C000E8D3B8F1000FE2D0002DDFD02846FFF7B8
:1013D00071FF0546002FF7D000214FF4A4700CF0E8
:1013E000D0FAF1E7204698470028E0D009FA06F342
:1013F0001D43E2E7044CDFF814A005464FF0010955
:10140000DDE700BF680D002094E00100A4E00100CA
:10141000014B53F82000704748E1010008B503462E
:1014200008462BB1044A136000F044FC002008BDBC
:101430006FF01500FBE700BF2C01002010B5044C35
:10144000237813B9034809F079F80123237010BDFC
:10145000721800203403002010B504460B480BF02E
:101460003CF85CB1BFF35B8F094B53E8001F0139B7
:1014700043E80012002AF8D1BFF35B8F054809F05A
:10148000E5FF0548BDE8104009F058B8600D0020A0
:10149000640D00206008002034030020064BBFF3D9
:1014A0005B8F002253E8000F43E800210029F9D1A7
:1014B000BFF35B8F704700BF600D002070B5FFF772
:1014C000EDFF084C084E0546B44200D370BD63687A
:1014D0005B792BB123685B6813B129462046984796
:1014E0001034F1E794E00100A4E0010010B5044CD1
:1014F000044920460AF04CFD034B1C6010BD00BFA0
:10150000F802002034E10100580D00200D4A0E4879
:10151000002310B513700D4A13600D4A4FF40041BB
:101520001360FFF77BFFFFF7E1FF0A4B0A491846FC
:101530008B4200D310BD1A1A5C681211013222715D
:101540001033F5E773180020D7C40100600D0020A8
:10155000640D002094E00100A4E001000146002297
:10156000014800230AF035BDF802002001480AF0C6
:10157000CCBD00BFF8020020024B014618680AF0FB
:101580001FBE00BF580D002001480AF054BE00BF26
:10159000F802002070B52A4B1B78002B4ED0FFF7C5
:1015A000E5FF0446002846D1264B274D1B68002B3B
:1015B00019DD0CF091FA4FF47A76A0FB063206FBA7
:1015C0000121D5E90020DB0B43EA41439B1A4FEA96
:1015D000D13140F2E93261EB0001934271F1000137
:1015E00001D3FFF76BFFD5E9003213F57A7342F1AF
:1015F0000002C5E900320CB3BDE87040FFF7C4BF7C
:101600006B685B7923B12B6821461B682846984795
:101610001035B542F4D32046FFF7AEFFBFF35B8F22
:101620000A4B53E8001F013943E80012002AF8D1A1
:10163000BFF35B8FB8E7064D064EEAE7002070BDAA
:1016400072180020600D002058080020640D002052
:1016500094E00100A4E0010070B50D4D297861B956
:101660000120FFF789FE0B4C0B4EB44206D3FFF767
:1016700091FF0028FBD101232B7070BD63685B795B
:101680001BB1236820469B6898471034EDE700BFE4
:101690007318002094E00100A4E0010000212DE96E
:1016A000F8430846FFF768FE044648B340F267680F
:1016B0004FF0000900F080FF1A4B1B4A1B581360C3
:1016C00033B11A4B1B68092B02DD194808F036FFAD
:1016D000184F002544B12046FFF7ECFD044618B929
:1016E0004FF0FF384FF0FF39FFF754FF064628B997
:1016F000B5B90F4842464B4608F054FF3546E9E776
:101700004FF0FF384FF0FF39D4E72B689B691BB1CE
:1017100000221146284698471035BD42F5D3E8E728
:10172000054DFAE7080000005C0D0020640D002064
:1017300034030020A4E0010094E0010013B5184830
:101740000AF0CBFE174B1B7873B1EFF31184202303
:1017500083F31288BFF36F8FFFF71CFF84F31188A8
:10176000BFF36F8F02B010BD0F4B1B68002BF9D079
:1017700050B900220023CDE900230C484FF4004269
:10178000002309F02BFEEDE70928EBD1074809F00B
:101790005DFE074802B0BDE8104008F0CFBE00BFB4
:1017A000640D0020731800205C0D002060080020EC
:1017B0003403002010B5064B1B68044698472146A9
:1017C000A06004480AF082FCBDE81040FFF7B6BFF5
:1017D0002C010020F8020020044A054B9B1AB1EBB3
:1017E000D30F34BF52F8310000207047ECDF010006
:1017F00094E001002DE9F04F8FB004AFC1F34A2609
:10180000B8600D4690467B600C0D002E61D04FF005
:1018100000090A234FF0040B07F1140AFE60C7E920
:101820000799C7F824900093CDF808B0CDF804A02C
:1018300007F11C03F9684A464046FFF743FAB0F542
:10184000006F03461CD36C468AB0D8F8041004AB72
:101850002448C3E9050140F2FF71D9611A464FF4EB
:1018600000711984204B42F8103F20484B464FF43A
:101870001251FFF7BFFFA5462C37BD46BDE8F08FDC
:10188000C0F30A0604F11700184420F0070080088E
:101890003B60FFF763FE66F35325044680B13B6867
:1018A000134A00F11001C7E90839F961CDE901AB2C
:1018B0000A230093F96807F11C034046FFF702FA78
:1018C00066F353257B68B9682A4620460AF045FE30
:1018D000D2E704F1170020F007008008FFF73EFE72
:1018E0000446EDE7EEE601000400000144E00100DB
:1018F0002DC501002DE9F04F87B0DDE9127ADDE951
:10190000106B0546884614469946BFB11021CDF8A4
:1019100000A03B465A460020CDF814A0FFF71EF861
:10192000B0F5006F01460BD3194A1A4840F2FF7315
:10193000022107B0BDE8F04F0AF068BE39463846CC
:1019400004F0070305F00704E40044EA831444EAC2
:10195000402444EA065406F11700084420F007002A
:1019600080080391FFF7FAFD054640B13FB10399A6
:10197000CDF800A03B465A461030FEF7EFFF4B462D
:1019800022464146284607B0BDE8F04F0AF0E5BDC3
:101990002DE7010044E00100406820B1034BC01A6C
:1019A00040F3CF0070474FF0FF307047ECDF01008D
:1019B0000EB403B503AB014653F8042B044801935E
:1019C00000F080FF02B05DF804EB03B0704700BF89
:1019D0006FC60100CA0605D48B064CBF02490349F5
:1019E000FFF7E6BF704700BF49E5010065E701006A
:1019F0002DE9F04F89B09846159B0693DDE916A3B3
:101A00009DF85090189F059204460D460493B9F135
:101A1000000F00F0B08007F4807307930AF07BFD9D
:101A200007F0020B0246002874D078492046FFF7E1
:101A3000BFFF0646BBF1000F08D017F0440F6BD173
:101A400073492A462046FFF7B3FF064407F0010317
:101A500053B1704B704953F82920704B2046002A2F
:101A600008BF1A46FFF7A4FF07F48073002B07F0A6
:101A7000080318BF4FF00008002B79D0684B694964
:101A800053F829202046FFF793FF0546059B2BB10D
:101A900065491A462046FFF78BFF0544B8F1000F51
:101AA00005D0624942462046FFF782FF0544604860
:101AB0003544069B1BB15F4922460AF0FDF8049BA2
:101AC000002B00F08E80DDF810803946B8F1100F41
:101AD000204628BF4FF01008FFF77CFF0026B542D4
:101AE00050DC002633461AF8032053492046FFF7FE
:101AF0005FFF0136102E4BD0710703D14F492046AE
:101B0000FFF756FF46453346EDD34D492046FFF7D4
:101B10004FFFEEE706468DE74A4B1868002894D041
:101B2000494B4FF47A7B1B68B5FBF3F54FF46163C7
:101B3000B5FBF0F100FB11550BFB05F54FF03C0C2C
:101B4000B1FBF3F203FB1211B5FBF0FEB1FBFCF3AA
:101B500000FB1E550CFB13110BFB05F50091B5FBAB
:101B6000F0F53A49CDE901E52046FFF721FF6CE7A2
:101B700007F008058AE7B8F1010F0CBF2C4834487C
:101B80004D4696E72D492046FFF712FF0136A6E79E
:101B9000304920460026FFF70BFF33461AF8032092
:101BA0002D49A2F120035F2B28BF2E222046FFF7EC
:101BB000FFFE0136102E0DD0720703D11F492046BB
:101BC000FFF7F6FEB0453346E8D81C492046FFF73C
:101BD000EFFEEEE7049BB3EB0803C24404937FF4EB
:101BE00072AFB9F1000F0AD0FB0704D50B4A0A49BE
:101BF0002046FFF7DDFE39462046FFF7EBFE204684
:101C000009B0BDE8F04F0AF025BD00BF6DE7010047
:101C100071E7010058E10100FAEE010068E70100F8
:101C20006CE1010096E701009CE70100A0E70100DC
:101C30006FC60100C5280100A5E70100ADE701005E
:101C4000ABE70100700D00206C0D00207AE7010069
:101C5000A5C60100AFE70100B1E7010073B542F28C
:101C60000F738B4228BF0B4605680F4A04460521B7
:101C7000684609F065FC63680C495B6806460B2200
:101C800028460AF0D9FC63683246694628465B68F4
:101C90000AF0D2FC636806495B681B2228460AF0FA
:101CA000CBFC02B070BD00BFC7EC010014F6010010
:101CB000F8F50100074A00210123904206D8064AA0
:101CC00001B901231360054B1860704740085B00A1
:101CD0000121F2E740420F006C0D0020700D002042
:101CE000F8B5074F0D4604464618B44201D12846C0
:101CF000F8BD14F8011BBB6801485B689847F4E71E
:101D0000D4DD0100014B036000207047B4E1010005
:101D100008B50348034A0021121A0AF040FD08BD25
:101D2000D8030020241900200748084A084908B5AC
:101D3000121A0AF036FD0748074A0849BDE808406C
:101D4000121A0AF02EBD00BF00000020D4030020AC
:101D500080F60100000000200000002080F6010055
:101D60002DE9F047064600AF0C46002936D0E9467B
:101D70008AB0D1E90012A3686D462148E8464FF0C9
:101D8000050ACDE90501CDE9072348F810AF1D4844
:101D9000424600234FF42151FFF72CFDCD46D4E9F4
:101DA00003126369AD461848C5F810A0C5E90501DE
:101DB000C5E907231348002342464FF42151FFF79A
:101DC00019FDCD46E369114A0E4801210AF01EFCB7
:101DD000A3690F4A0B4801210AF018FC012E07D114
:101DE000EFF305830B4A0748103B31460AF00EFC1F
:101DF0002146304608F0D0F9BD46BDE8F08700BF67
:101E0000EEE7010074E001001DE801004CE801006C
:101E10005BE8010089E8010030BFFFF7FDBF00BFAC
:101E20002DE9F0410B4EDFF8308006EB0807CC1BA4
:101E300005463246094920460BF0A9FEA019424644
:101E40000021083C0BF0CAFE2C6707F10800BDE832
:101E5000F08100BF0000000004000000A4E00100C9
:101E600010B5204C204921480AF0A8FCA36A99012A
:101E700036D51E481E490AF0A1FC1E20A36ADA01CD
:101E800004D51A481B490AF099FC1F20154CA36A77
:101E90001B0304D5154818490AF090FC2120A36AB9
:101EA000590304D5114815490AF088FC22200D4C2D
:101EB000A36A9A0304D50D4811490AF07FFC232038
:101EC000A36ADB0304D509480E490AF077FC2420F5
:101ED000044A936A6FEA03436FEA1343936210BDA7
:101EE0001D20CBE700ED00E09CE8010074E001005C
:101EF000B4E80100C7E80100E1E80100FFE80100E3
:101F000024E901003EE9010070B506460D46284C63
:101F1000284929480AF052FCA36AD9043CD526482E
:101F200026490AF04BFC1720A36A1A0504D522485B
:101F300023490AF043FC18201D4CA36A9B0512D5C7
:101F40001D4820490AF03AFCA36BA26A100409D587
:101F50001D4A194801210AF059FB1EB1A36A23F456
:101F60000043A3621920124CA36A590504D51248F4
:101F700016490AF023FC1A20A36ADA050ED50E488A
:101F800013490AF01BFC1B20094A936A43F47F4360
:101F9000936200232B7070BD1620C5E7A36A9B04D3
:101FA000F2D505480B490AF009FC1C20ECE700BFFC
:101FB00000ED00E069E9010074E001007FE9010043
:101FC00090E90100A3E90100BCE90100D1E90100A9
:101FD000ECE9010004EA01002DE9F8438046894656
:101FE0001746354D354936480AF0E8FBAB6ADE0640
:101FF00027D5344932480AF0E1FB1124AB6A1D07AA
:1020000004D531492E480AF0D9FB12242A4DAB6A77
:10201000980718D52D492A480AF0D0FB6E6BAB6A99
:10202000190646D52A4A2648334601210AF0EEFA17
:10203000B9F1000F03D0AB6A23F08003AB62132425
:1020400003E01024DAE76FF015061B4DAB6ADA07E0
:1020500004D520491A480AF0B1FB1424AB6A9B0648
:1020600004D51D4916480AF0A9FB1524124B9A6A9B
:10207000D50602D49A6A90070AD55B68190507D578
:102080004146304600F0EAF910B180F30988022495
:10209000094B9A6A920642BF5A6A22F400525A6267
:1020A0009A6A42F0FF029A6200233B702046BDE824
:1020B000F8836FF01506C2E700ED00E033EA010097
:1020C00074E0010049EA010090E901007CEA0100A6
:1020D00094EA0100AAEA010004EA01002DE9F041B6
:1020E000684B8AB0D3F8048000AF0446C8F30806F2
:1020F000002585F31188BFF36F8F02F07F43B3F1A2
:102100007F4F07D102F00C03082B12D15E495F48C4
:102110000AF054FB00252C460023FB71F31E092B0B
:1021200000F28F80DFE803F00A8588818D8D8D8D28
:102130008D8B10074CBF0C460125EDE754495348E1
:10214000504E0AF03BFB0023FB71F36A9A0705D55A
:1021500050494E480AF032FB00232DE0F36A002B71
:1021600001DA4D49F5E7F36A5B00F5D54B4947487D
:102170000AF024FB7369A26943F480737361BFF3AF
:102180004F8FBFF36F8F32F8023C726922F4807276
:102190007261BFF34F8FBFF36F8F03F47F42B2F5CD
:1021A0005F4F2BD1DBB2022B28D123683C4A374842
:1021B00001210AF02BFA2368FA79DAB907F1080647
:1021C00004F1200C20686168324603C2083464457B
:1021D0001646F7D17A6A002D50D0C2F3080121B912
:1021E0006FEA52226FEA42227A6207F1080118462A
:1021F000FFF7B6FD2837BD46BDE8F081214B9A6A4E
:10220000D2B22AB1FA1D01212046FFF7E5FE0EE009
:102210009A6A12F47F4F04D0F91D0120FFF774FE73
:1022200005E09B6AB3F5803F96D3FFF719FE03469E
:10223000C2E7FA1D0021E7E7F91D0020EEE7194982
:1022400087E7194A194B18F4F87FE8468AB008BFA7
:1022500013466A461649CDE905134FF40073ADF8ED
:102260002030103E134B079642F8103F07480023DA
:102270004FF41151FFF7BEFAC5466DE76FF3080240
:10228000B2E700BF00ED00E0F7EA010074E00100F2
:1022900022EB010039EB01005AEB010068EB010071
:1022A00087EB0100A3EB0100C9EA0100DEEA0100AF
:1022B000C7EB010004000001044B5A6942F0100210
:1022C0005A615A6922F008025A61704700ED00E035
:1022D000EFF30880EFF3098101B57246FFF7FEFEC8
:1022E00001BD00BF0B4880F3088807F0B5FB202034
:1022F00080F3118808484FF40461401880F309887E
:10230000EFF314800221084380F31488BFF36F8F2A
:1023100000F06CF840390020802B00201EF0040FE4
:102320000CBFEFF30880EFF30980816911F8021CFC
:102330000229FFD001B572460AF035FA01BD00BF8F
:1023400040B2002807DB044A4109012300F01F00C6
:10235000834042F82130704700E100E040B200289D
:102360000CDB4309064900F01F00203301228240A4
:1023700041F82320BFF34F8FBFF36F8F704700BF2B
:1023800000E100E0054B420900F01F0053F8222055
:10239000012303FA00F01040704700BF00E100E0A5
:1023A00040B20028A8BF00F1604001F10101B8BFB0
:1023B000064B4FEA4111ACBF00F5614000F00F0041
:1023C000C9B2B4BF195480F80013704714ED00E08F
:1023D000044B054A23F07F039360BFF34F8FBFF395
:1023E0006F8F70470000010000ED00E008B5FFF7B7
:1023F000EFFF0B4AD2F8883023F47003C2F888301C
:10240000EFF3148323F0040383F31488BFF36F8F77
:10241000FFF77EFCFFF788FC00F0B0F807F0E2FF62
:1024200000ED00E042F8203C009B42F81C3C0A49C9
:10243000019B42F8183C029B42F8143C21F0010138
:102440004FF0807342F8043C42F8081C0023203A05
:1024500002654367704700BF99100100094A0346AF
:10246000906870B113F1160F006E05D0A0F1400214
:10247000934205D3834203D2814228BF0020704794
:10248000002070473C18002008B515460B4A0C4B3D
:102490009060026F1A600E4600F0A0F82C4686F39A
:1024A00009880020034B9847204600210022002382
:1024B000014C2047D3C70100991001003C180020AF
:1024C000980D0020014B10221A61704700ED00E0CA
:1024D000054B5A699B689A421FBF044A536843F0F0
:1024E00080535360704700BF3C18002000ED00E0AF
:1024F000084B9B6883420BD1EFF3058343B1064B36
:102500005A6842F080525A605A6A22F400425A6273
:1025100008F07EBC3C18002000ED00E014498A68F9
:102520004FF030001044EFF3098C80E8F01F2020BA
:1025300080F31288BFF36F8F0E4F4FF000664A6929
:102540008A603E60106F0C4C2060506F0023536710
:1025500080F3118804B5104600F040F8BDE804404F
:1025600002F1300090E8F01F8CF3098870470000FA
:102570003C18002004ED00E0980D002004480023E2
:102580002021C2180133302B82F80013F9D1704793
:1025900000E100E008B5EFF30583064A103B02EBCB
:1025A000C30152F8330049688847BDE80840FFF787
:1025B0008FBF00BF0CDE01000148006870470000BB
:1025C000980D0020024B034A0348012100F08AB80D
:1025D0000000042000000020B4E10100036E054A61
:1025E000403B1360044B4021C2E901131046012116
:1025F00000F082B89C0D002000000B1508B50346C2
:102600001048D0F89020C2F30722013A934207D92C
:102610000D480E4A012109F0F9FF6FF0150008BDC1
:10262000C0F898300A6822F01F021A4342F01002E4
:10263000C0F89C208A6842F00102C0F8A020184629
:10264000EDE700BF00ED00E05CE00100DEEB010023
:10265000F0B50E4685B01F4604460025B5420DDA9A
:10266000606810B397B1431E18420AD0104A11484F
:102670002B46012109F0CAFF6FF01502104605B084
:10268000F0BD1F28F2D921680B42EFD123680193D6
:102690000AF0C2F8A36801A90343D0B20393FFF77D
:1026A000ADFF10F1160FE7D0421C01350C34D5E711
:1026B00004EC01005CE00100044B0522C3F8942007
:1026C000BFF34F8FBFF36F8F704700BF00ED00E087
:1026D000BFF35F8F024B0022C3F89420704700BF06
:1026E00000ED00E010B5034C01232278FFF7B0FFA6
:1026F000207010BD7518002008B50B4A0023127811
:10270000FFF7A6FF10F1160F07D0084A0021D2F8F4
:102710009030C3F30723984200DB08BDC2F898004D
:10272000C2F8A0100130F2E77518002000ED00E0BB
:102730002DE9F0435D485E49D0F890300C68C3F352
:1027400007239C4285B000F2AE80FFF7C1FF4968C5
:102750000022944201F10C011AD1564F564D3C70A3
:102760006846FFF7CFFA554C554E81464FF00008AA
:10277000C14520D13B784D490020D1F89020C2F3CB
:1027800007229342C0F28980FFF796FF002050E0B5
:10279000C0F8982051F80C3C23F01F03134343F07A
:1027A0001003C0F89C3051F8043C43F00103C0F81A
:1027B000A0300132CDE7009800EB08114FEA081C69
:1027C000CB682340B3F5000F49D00BD8B3F5001FF9
:1027D00032D0B3F5800F37D0B3F5801F14D008F195
:1027E0000108C5E7B3F1007F42D0B3F1805F48D064
:1027F000B3F1807FF3D150F80C3088684A680AF052
:102800000BF840F0887009E050F80C3088684A688E
:102810000AF002F840F0885040F43020039001A9FB
:102820003878CDE90123FFF7E9FE002831DA6FF0AF
:10283000150005B0BDE8F08350F80C3088684A6890
:1028400009F0EAFF3043E9E750F80C3088684A683D
:1028500009F0E2FF40F0C06040F40030DEE750F8DD
:102860000C3088684A6809F0D7FF40F08270D5E7DD
:1028700050F80C3088684A6809F0CEFF40F4802098
:10288000CCE750F80C3088684A6809F0C5FF284347
:10289000C4E73B7801333B70A1E7C1F89830C1F839
:1028A000A000013369E74FF0FF30C2E700ED00E020
:1028B000C0E1010075180020000002110000F0FFC7
:1028C00000000811F0B587B007460E4614460021F7
:1028D000102268461D460BF081F902238DF8023064
:1028E0002A46054B019321466846CDE9047608F057
:1028F00051FE07B0F0BD00BF39C8010008B5024B5A
:102900001B689847002008BDA80D0020034B044A0F
:102910001860937843F0020393707047A80D00206D
:102920003801002008B50649064821F00701C1F129
:10293000005202F5802209F07EF9002008BD00BF98
:10294000F7430020AC0D002070B54169867A0B4D2D
:10295000044659B1437ADB0706D4242303FB06530C
:10296000DB691B689B68984700236361242021462C
:1029700000FB0650BDE870400AF063BE440300202F
:10298000024B242202FB0030704700BF44030020AA
:10299000827A064B242101FB02331A6A1B7D1B330A
:1029A000801A23F00303B0FBF3F0704744030020C8
:1029B00038B5074B827A242404FB0233DB69D3E960
:1029C00001240C601568FFF7E3FF04FB005038BDDD
:1029D000440300202DE9F04385B005466846039185
:1029E00090461C460BF07AF8DDE90067EFF3118999
:1029F000202383F31288BFF36F8F6B8A002B41D0A3
:102A00002A8A9A4225D900220023284607F064FD2D
:102A10000446F0B189F31188BFF36F8F039B002B3D
:102A200041D032463B4668460BF07DF8A27A264BF1
:102A3000242101FB02332046DB691B6803A91D68C2
:102A4000DDE90023A847606170BB2046FFF77CFFEB
:102A500024E0698A4B1E6B8289F31188BFF36F8F64
:102A60002B7D2A8A2C6A1B3323F00303521A02FBA4
:102A70000344154B154AEB1A9B105343A3722B7D4D
:102A8000E372CBE789F31188BFF36F8F2346424689
:102A9000284607F021FD04460028BFD10024204627
:102AA00005B0BDE8F0836361012300252381039B0A
:102AB0006382E27A6560294604F118000BF08EF813
:102AC00063692582E360EAE744030020398EE33836
:102AD00070B50D4C242500B970BD037A4668002BF3
:102AE000FAD0013BDBB20372002BF5D1C360436027
:102AF000837A05FB03439B6913B198473046EAE7A5
:102B0000FFF722FFFAE700BF44030020024B012237
:102B1000C3F840250020704700E0014048B1054B54
:102B2000054A1B68B3FBF2F35843044B43F001031F
:102B300018477047C002002040420F0000E101002A
:102B400008B50E480AF082FC10B96FF0120008BDFB
:102B50000A480AF07BFC0028F7D008484FF42022EE
:102B6000002109F0FDFE0028F1D10448BDE808402D
:102B70004FF42022092109F0F3BE00BF80DD0100DF
:102B80000E4B402970B528BF40210D4C46181D46FC
:102B9000B04203F1020304D1002305F811300748C5
:102BA00070BD02781209A25C03F8022C10F8012B08
:102BB00002F00F02A25C03F8012CE9E79418002050
:102BC00033F6010030B503788BB0044607AD032B14
:102BD00021D8DFE803F0021A1C1E12492846FDF72F
:102BE000A9FA059563780493A3780393E378029395
:102BF0002379019363790093A3790B4A0B481E2133
:102C000008F09EFC09480BB030BD0949E6E70949C8
:102C1000E4E70949E2E7094A0A21284608F090FC5E
:102C2000DFE700BF54EC010076EC010076180020CD
:102C30005BEC010062EC01006CEC010024ED010092
:102C400010B509F0B6FE0AF0D5FD044608B908F043
:102C500015F8BFF35B8F064B1B68BFF35B8F0BB19F
:102C60000A2098471CB9BDE8104008F01BB810BDF9
:102C7000B80D002038B50446084809F0EEFD0546B9
:102C800048B1631EDBB21F2B96BF054A0021D15C01
:102C90000C3009F034FE284638BD00BF8C030020FC
:102CA00044F601000E38012810B50AD8094809F089
:102CB000D4FD044618B104210C3009F020FE204652
:102CC00010BD09B10448F2E7BDE810400220FFF74B
:102CD000D1BF00BFB00300204403002010B5012184
:102CE0000C3009F02DFE0378034A0448BDE810407B
:102CF000012109F078BE00BFA8EC010024E001002A
:102D000010B586B003AB002400930749074805942B
:102D10004FF0FF334FF48062CDE9034407F0A6FD86
:102D2000204606B010BD00BF801C0020980800207F
:102D300010B5094BD3F80C3163B1084908480AF0C3
:102D400024FD031E06DA074A0748BDE810400121AA
:102D500009F049BE10BD00BF00000020E8010020BE
:102D600038090020CAEC010024E00100B0B50B4690
:102D70000D8A00AF04462946D868FFF701FF8AB0E4
:102D80006A46094BCDE9053440F20243ADF82430E0
:102D9000064BCDE907504FF4325142F8103F04483A
:102DA00009F032FEBD46B0BDE7EC010005000001B0
:102DB00024E0010037B502EBC303044608469A42FB
:102DC00002D16FF05E0010E0114611F8085BA542D9
:102DD00011D1038A5178994209D90848084A0094C8
:102DE000012109F01DFC6FF0150003B030BD5368E0
:102DF00098470020F9E70A46E1E700BF24E0010018
:102E000009ED010010B5012104460C3009F098FDD0
:102E10002146034A0078BDE81040002309F0F7BDC1
:102E20007CE2010010B5012104460C3009F088FD58
:102E30002146034A0078BDE81040002309F0E7BDB1
:102E400094E20100F8B5012100AF04460C3009F00E
:102E500077FD0678114A002321463046FFF7AAFF86
:102E60005F3019D1258AE0682946FFF789FE6C4654
:102E70008AB06A460A4BCDE9053640F20243ADF806
:102E80002430084BCDE907504FF4325142F8103F3F
:102E9000054809F0B9FDA546BD46F8BD94E201001C
:102EA0002BED01000500000124E001002DE9F74FA2
:102EB000DFF818A1BFF35B8F8046894617460023D1
:102EC0005AE8004F4AE80032002AF9D1BFF35B8F7D
:102ED000264644B93E4A3F484346012103B0BDE877
:102EE000F04F09F080BD2046FFF752FD3A4D4FF0FC
:102EF0000C0B0BFB0050438843451FD02046FFF7C7
:102F000047FD0BFB00504388344A00933148434649
:102F1000012109F085FBBFF35B8F5AE8003F4AE8C7
:102F20000062002AF9D1BFF35B8F002B4BD01E4605
:102F3000304603B0BDE8F04FFFF7CABDA74208D046
:102F4000204609F085FC3A8AF96804F10C0009F082
:102F5000CDFC2046FFF71CFD0C2707FB0050436803
:102F6000ABB1B9F1000F12D12046FFF711FD07FBFD
:102F7000005001214268536803F01F00814010682F
:102F80005B0900EB8300137ACBB109F02EFD2046DC
:102F9000FFF7FEFC0C2707FB00508368002BC7D00F
:102FA0002046FFF7F5FC784305F800902046FFF730
:102FB000EFFC07FB0055A86807F0C0FAB8E7C94363
:102FC00009F033FDE3E703B0BDE8F08F080100200E
:102FD0005DED010024E00100BC0D002085ED010045
:102FE000094BBFF35B8F1A68BFF35B8F02F00B02D4
:102FF000BFF35B8F53E8001F43E800200028F9D19E
:10300000BFF35B8F704700BFD40000202DE9F0476D
:103010000C4607F033FEE568268A2B78042B7DD119
:10302000022E0ED8434A33464348012109F0DBFC07
:103030002046FFF74DFD002407F034FE2046BDE892
:10304000F0876B783E2B0CD1032E02D13B4A3346DE
:10305000EAE7EB78012B01D00A2B49D14FF00308A6
:1030600006E0052BFAD00E3B012B41D84FF00108AA
:1030700004F10C0701213846D4F814A009F058FCDB
:103080000221384609F05CFC03783E2B814607D1CB
:10309000E3681B78012B01D00A2B06D1032714E02B
:1030A000052BFBD00E3B012B32D9254A254926485A
:1030B00041F2681308F05FFE002383F31188BFF329
:1030C0006F8F0323184602DF022703231F4A99F854
:1030D0000000214609F09BFCBB071BD563692682D3
:1030E000A5EB0A0513FA85F5E560B8F1010FA2D04A
:1030F0001748214609F0B5FB164917480AF045FB69
:10310000031E98DA154A0C48012109F06CFC92E77D
:103110000127DAE72046FFF7DBFCE6E7104A06481E
:10312000012109F060FC2046FFF7D2FC6FF0150486
:1031300082E700BFB8ED010024E00100D4ED0100FA
:10314000F4ED010028EE010041EE010064E201000F
:103150000C010020E801002038090020CAEC010021
:103160005EEE010038B51C4809F090FB044690B3B0
:1031700000F10C05284609F0EBFB0428034624D196
:103180002846022109F0DCFB03780E3B012B0546A3
:103190000ED8124A1249134840F69A4308F0EBFD44
:1031A000002383F31188BFF36F8F0323184602DFD8
:1031B0000D4A28780323214609F029FC2046FFF711
:1031C00087FCBDE83840FFF7B3BD084A0848012135
:1031D00009F009FCF2E738BD0C010020F4ED010014
:1031E00072EE010041EE01007CE20100A0EE010060
:1031F00024E0010010B5C1E900239DF808300B72EE
:103200000C46FFF7C5FB034B0C2202FB00335C604E
:1032100010BD00BFBC0D0020F8B502460B4610489B
:1032200009F01BFB0446C0B104210C3009F054FB2B
:103230002046FFF7ADFB0B4D0C2707FB0050002687
:1032400046802046FFF7A4FB07FB0050866020461F
:10325000FFF79EFB07FB00556E602046F8BD00BFE0
:1032600068030020BC0D002010B592B00446074949
:10327000442201A80AF08BFC102C9BBF12AB03EB7D
:103280008404034854F8440C12B010BDB0E00100AF
:10329000B4EE0100034B0146D3F824018268926822
:1032A000104700BF000000202DE9F047042100AFC7
:1032B000464809F09AFB6D4688B06A46444B059330
:1032C000444B06934FF40073ADF81C30424C434B13
:1032D00042F8103F4248434E4FF4E65109F094FB48
:1032E000414BE179AD462046012998BF1E46FFF7C4
:1032F00069FC8AB06A463D4B0790CDE905363C4BE8
:1033000008933C4B42F8103F35483B4EDFF8EC80C9
:103310004FF4235109F078FBA246AD460125E3792D
:103320009D420AF1070A3ADB94F870502846FFF7ED
:103330009BFF6E468CB0B4F87210B4F876306A46D3
:10334000DFF8BCC00993CDE907512E4B4FF400754F
:10335000CDE905C0ADF828504FF4535142F8103F65
:103360001F4809F051FBB54694F871603046FFF7ED
:103370007BFF8AB0B4F874306A462349ADF8245014
:10338000CDE90763214BCDE9051042F8103F144801
:103390004FF4335109F038FBBD46BDE8F087504685
:1033A000FFF710FCE9468AB06A4640F20133CDE9E6
:1033B00005650790ADF82030094842F8108F4FF4AA
:1033C000135109F021FB0135CD46A8E7D4000020B8
:1033D000C0EE0100D2EE0100000000200300000159
:1033E00024E00100BCEE01004AE50100DDEE010031
:1033F0000002010304000002ECEE010004000001E1
:10340000FDEE0100060000013BEF01000500000198
:10341000014902480AF0B9B9D801002098080020F3
:1034200070B505460C4639B1CB684A699B1A032B27
:103430000ED86FF0150509E04FF0FF304FF0FF3167
:10344000FFF7EAFE044618B96FF06805284670BD1C
:103450002046FFF79DFA174B0C2202FB0033A618FB
:10346000032130465D8009F052FA0580238A033B30
:1034700083700121304609F052FA40F635439D42EF
:103480000FD12046FFF706FF05460028DED00A4A86
:1034900003460121094809F0A6FA2046FFF718FB68
:1034A000D4E7074821460AF0C1F80025FFF7B0FF2E
:1034B000CCE700BFBC0D002062EF010024E001005A
:1034C000140100202DE9F04784B0804600AF9146FA
:1034D0000C4671B94FF0FF304FF0FF31FFF79CFE03
:1034E000044660B96FF0680528461037BD46BDE850
:1034F000F087887AFFF744FA3C4B83426FD1012270
:10350000002138460AF0A7F82046FFF741FADFF815
:10351000E0A00C2303FB00A08760204609F0CCF953
:1035200001464046FFF77CFF054618B12046FFF7ED
:10353000CFFAD9E74FF4A0220023384607F032F83B
:10354000064690B14FF4F1732A4A2B492B4808F0F4
:1035500012FC2B483246414608F00DFC85F31188D9
:10356000BFF36F8F0323184602DF2046FFF710FAE0
:103570000C2358431AF800605EB36D468AB06A4661
:10358000204B0796CDE905381F4B089340F20243C4
:10359000ADF824301D4B42F8103F1D484FF4325116
:1035A00009F032FA2046AD46093EFFF791FA092E9E
:1035B0000CD8DFE806F0050B0B08170B0B0B0B14F0
:1035C0006FF06E0590E76FF00C058DE76FF0040566
:1035D0008AE7B9F1000FA9D0C9F8004084E76FF07D
:1035E000150581E76FF00B057EE700BF680300203B
:1035F000BC0D0020F4ED010084EF010041EE01005C
:103600008DEF0100D2EF01004AE501000500000145
:1036100024E001002DE9F041002282B0114600AF04
:1036200040F60340FFF74EFF044600285BD1FFF74A
:10363000D7FC21463A1D41F20300FFF743FF044641
:10364000002850D17A68C34DD168D1F80100D1F873
:10365000051005F1780303C31046FFF739FA214638
:103660003A1D41F20100FFF72DFF044600283AD130
:103670007868C3685A7885F870205A88A5F872204F
:103680001A7985F87120B3F80720A5F87420B3F8EB
:103690000530A5F87630FFF71BFA21463A1D41F2B6
:1036A0000200FFF70FFF0446E8B9D7F804C0DCF8C2
:1036B0000C2005F18006531C4132186859683446C5
:1036C00003C4083393422646F7D16046FFF700FA59
:1036D00095F87C305C060BD49F4AA048012109F084
:1036E00080F96FF0120420460837BD46BDE8F0812E
:1036F0003A1D002142F20300FFF7E4FE04460028D1
:10370000F1D17A68964BD168D1F80100D1F8051053
:1037100003C31046FFF7DCF91F23A5F8E83095F83E
:103720007C30980619D44FF0FF304FF0FF31FFF78F
:1037300073FD0646002800F03D8102210C3009F09F
:10374000CFF80123447003702246314640F66D40A5
:10375000FFF7B8FE04460028C5D195F89C3019073C
:1037600012D53A1D002142F21C00FFF7ABFE0446C1
:103770000028B8D17868C368D3F80120D3F80530A1
:10378000C5E93823FFF7A4F94FF0FF304FF0FF31C0
:10379000FFF742FD0446002800F00C8108210C30A0
:1037A00009F09EF802260022067042708270C270F4
:1037B000027142718271C271214642F20100FFF72B
:1037C00081FE044600288ED14FF0FF304FF0FF31CC
:1037D000FFF722FD8046002800F0EC8008210C3025
:1037E00009F07EF8802343702023047084700471F4
:1037F00044718471C670C3712246414640F601404F
:10380000FFF760FE044600287FF46DAF01463A1DC5
:103810004FF60140FFF756FE60B1524A4F48022171
:1038200009F0DFF8EB79002B40F0B48000F05EFC8B
:10383000044658E77B68DC68B4F80130042B96BF77
:10384000494A4A4952F823106E468AB06A464848A7
:1038500007934FF40073ADF82030464BCDE90501D6
:1038600042F8103F3D484FF4135109F0CDF8B4F839
:103870000120B4F80330022AB5464BD1052B49D8B4
:103880003D4A52F823106E468AB06A463B48079379
:103890004FF40073ADF82030364BCDE9050142F806
:1038A000103F4FF413512D4809F0AEF8637994F8A6
:1038B00006C0D4F80900032BB54698BF304AB4F8C7
:1038C000076094BF52F8231028496C468CB06A46B2
:1038D000DFF8B0E0CDE9073C4FF40073ADF82C30D1
:1038E000294BCDE905E1CDE909604FF4735142F868
:1038F000103F1A4809F088F8A5467868FFF7E8F8FD
:103900003A1D00214FF60240FFF7DCFD044618B1D6
:103910001E4A83E71549B6E77868C368B3F80130F3
:10392000A5F8C130FFF7D4F895F8C1305A077FF5F4
:1039300079AF3A1D21464FF60340FFF7C3FD08B1AA
:10394000134A6BE77868C3685B7885F8C030FFF787
:10395000BFF867E700000020F1EF010024E001005C
:10396000D800002015F0010050E20100B4EE010083
:1039700039F001000400000138E2010052F00100BA
:1039800028E201006AF001000700000197F0010041
:10399000C0F001002E78002E7FF448AF95F8C130BA
:1039A0009B061FD54FF0FF304FF0FF31FFF734FC7F
:1039B000044610B96FF0680495E606210C3008F053
:1039C0008FFFD5F801300360084B9B888380214628
:1039D00032464FF60640FFF775FD044600283FF4D7
:1039E00025AF80E66FF085047DE600BF0100002072
:1039F00073B52C4D0646D5F8240109F027FD48B9CA
:103A0000294A2A48012108F0ECFF6FF012042046F1
:103A100002B070BD6FF0020105F1D40009F005F8A5
:103A2000012108F0E2FF10EA010437D1204B1E60AB
:103A30000A4605F1F80009F00EFE05F58A7009F056
:103A4000C7FD1C4809F0B1FE1B491A4800946FF0ED
:103A500007034FF4966206F009FF1849154809F06C
:103A6000CFFED5F82401164983681B6898470446A1
:103A700030B1144A034601210C4808F0B4FFC6E7F0
:103A80003EB9FFF7C7FD04460028C0D1FFF70CFC84
:103A9000BDE705F1C40006F0E3FEB8E76FF0770478
:103AA000B5E700BF00000020E9F0010024E00100BC
:103AB000C80D002038090020C020002001F10100BD
:103AC0000D3001000AF1010010B5FFF7A3FD044617
:103AD00008B9FFF7E9FB044B1B681BB12046BDE8A2
:103AE0001040184710BD00BFC80D002038B5042194
:103AF00004460C3008F024FF034640885D7818B176
:103B000019782246FFF7D2F935B1044806F016FDC0
:103B1000BDE83840FFF77CBC38BD00BFF80000208E
:103B2000B0B50321044600AF0C3008F009FFE2688D
:103B30000346B0F80100117840F63542904216D1A4
:103B40006C468AB06A46104B1048CDE90531104BDF
:103B5000079340F20133ADF820300E4B42F8103F8E
:103B60004FF4125108F050FFA546BD46B0BD1D7878
:103B700010B12246FFF79AF9002DF6D0064806F05C
:103B8000DDFCFFF745FCF0E726F1010024E0010031
:103B90004AE5010004000001F800002038B507F0F4
:103BA0006DF82E4DD5F81431002B52D00022002391
:103BB00005F1F80006F0F6FC00284AD100220023A7
:103BC00005F58A7006F088FC044668B9244A254940
:103BD000254840F6AA4308F0CEF884F31188BFF3D5
:103BE0006F8F0323184602DFD5F808315BB11F4AF7
:103BF0001F48012108F0F5FED5F80801FEF768FF1F
:103C00000023C5F80831204608F056FEC5F8080123
:103C10002046FFF73FFB0346C8B1164A144801216E
:103C200008F0E1FE144806F089FC2046FEF7B0FEDD
:103C3000124B0C2202FB0033588818B122461F2178
:103C4000FFF734F92046FEF743FFFFF7E1FBFFF7EC
:103C5000DFFBBDE8384007F025B800BF00000020BA
:103C6000F4ED01009CEC010041EE01005EF1010069
:103C700024E0010062EF0100F8000020BC0D0020EC
:103C800070B54FF0FF320D464FF0FF33002106466E
:103C9000FFF708F8044660B90A4A0B490B481A2393
:103CA00008F069F884F31188BFF36F8F0323184677
:103CB00002DF022104F10C0008F012FE06704570CC
:103CC000204670BD9AF201009CEC010041EE01001B
:103CD000F8B50A4DEF7906460024E3B29F4202D8B8
:103CE0006FF0010007E02946304608F0CEFE0735A8
:103CF000631C08B12046F8BD1C46EEE7000000201A
:103D000070B51A4E06223146054609F06FFF38B3EA
:103D10004FF0FF304FF0FF31FFF77EFA044608B353
:103D2000062229460C3008F0E1FD2146002242F22D
:103D30000500FFF7C7FB044648B110F10D0F04D191
:103D40000B4A0C48022108F0A8FE204670BD3346FD
:103D50002A6843F86929AA88B280012283F868207A
:103D60000024F2E76FF06804EFE700BF690000206D
:103D7000D0F201002CE0010073B504460D4689B174
:103D80001749284608F081FE60B9164A2968C4EB35
:103D9000C404A3181151AA889A80AA799A710020A4
:103DA00002B070BD6E46304608F0F5FD0028F7D130
:103DB0003046FFF78DFF0028F5DA0A4A0098B179FE
:103DC000C4EBC404A3181051B08898809971002DD9
:103DD000E5D012592A609A88AA809B79AB71DEE7F8
:103DE00020F601000000002070B5044629BB38B35E
:103DF000274908F04AFE18BB2046FFF769FF002854
:103E000040DA23786BB9234AD379002B3AD1206862
:103E10001060A179A088917101219080D17118461C
:103E200070BD012B04D1A37903F0C003C02B07D0D0
:103E3000194A1A48012108F030FE6FF01500EFE72B
:103E4000144DEB79012B20D0BFF35B8FD5F8D43024
:103E5000BFF35B8FDB0707D4002CEED00C49204664
:103E600008F013FE0028E8D1EE792146731C304695
:103E7000EB71FFF781FF08B93046D1E7EB79013BE1
:103E8000EB71CDE76FF07700CAE76FF00B00C7E783
:103E900020F6010000000020DFF201002CE001000C
:103EA0002DE9F341044640B91A4A1B48022108F0A3
:103EB000F4FD002002B0BDE8F08101AA002141F22A
:103EC0000900FFF7FFFA054608B1144AEDE7019E25
:103ED0001349D6F80C8008F101070622384609F08C
:103EE00085FE28B10F490622384609F07FFE18B931
:103EF0003046FEF7EDFDDCE7D8F80130C4F80130BC
:103F0000BB88A4F8053030462570FEF7E1FD01209E
:103F1000D0E700BF0DF301002CE0010026F3010003
:103F20002DF6010027F6010007B56846FFF7B8FF38
:103F3000044BD87118B169460020FFF71DFF03B08C
:103F40005DF804FB000000202DE9F041304EF179CE
:103F500088B0002954D196F8C24014F0010411D160
:103F60002C4A2D48022108F098FD0024F4711625F2
:103F700000240127F379E0B283422BD8002B3FD0F5
:103F800000203AE06A464FF60940FFF79BFA08B175
:103F9000224AE6E7DDF800C0DCF80C5095F8018015
:103FA000B8F1000F0ED0AB1C02AA12351868596880
:103FB000174603C70833AB423A46F7D11868386052
:103FC0009B88BB806046FEF783FDB8F1000FCDD122
:103FD000134AC6E708AB05FB0033694653F8182CB3
:103FE00033F8143CCDF80120ADF805308DF80070A1
:103FF000FFF7C2FE01340028BCD008B0BDE8F08154
:104000000021084608B0BDE8F041FFF7EDBE00BF53
:104010000000002044F301002CE0010070F30100D7
:1040200090F301002DE9F0411D460E461746034668
:1040300048B145B10A0311D54C0708D5284A29488B
:10404000012108F02AFD6FF01500BDE8F08108F0AD
:104050002EFD0028F9D101232B70F6E7B107047873
:1040600024D021492FB1B20603D591F8D8205006AB
:1040700032D5C4EBC40411F80480B8F1010F09D1A2
:1040800001342144184608F00AFD0028DDD185F8E6
:10409000008002E0B8F1000FF9D02FB1B30642BFA3
:1040A0002B7843F002032B700020CEE7720710D567
:1040B0000D49C4EBC4040F5D012F07D10134214425
:1040C00008F0EDFC0028C0D12F70E7E7002FE5D104
:1040D000FAE708F0ECFCBEE76FF08500B5E700BF3B
:1040E000B9F301002CE001000000002038B5104DAC
:1040F000EB7913B10024204638BDFFF715FF0446C5
:1041000028B10C4A0C48012108F0C7FCF3E7EB7911
:10411000002BEFD1FFF718FF04460028F1D1681CEF
:10412000FFF7EEFD04460028E5D0044AEAE700BFA9
:1041300000000020D8F301002CE00100F7F301009B
:104140002DE9F74F884601904FF0FF314FF0FF30D7
:10415000FFF762F8044600284ED020210C3008F00A
:10416000BFFB002120220646002709F037FDD8F8C2
:10417000005006F1010B3946D8F804309F4208D3AD
:10418000019831700022214603B0BDE8F04FFFF7DF
:1041900099B96A7895F800C0881C13181F2B5FFA2C
:1041A00080F915D9BCF1090FC9F11F0201D1002A0C
:1041B0000CDC134A1348012108F01FFA2046FEF7D1
:1041C00087FC6FF0150003B0BDE8F08F4FF0080CCE
:1041D0005FFA82FA0AF1010E0BF801E00131C9B26F
:1041E00058440BF801C0D144696809F0D0FC01378C
:1041F0005FFA89F10835BFE76FF06800E3E700BFB9
:104200001AF40100F4DF0100F8B545686A050646B6
:1042100033D4046914B115F003032ED0184F30784D
:10422000FB79834229D9C0EBC000164907223844E4
:1042300009F0DCFCA8B115F0030306D197F8702053
:10424000082A02D8B2689F2A17D915F0300F09D072
:104250009CB1EB0608D405F46035B5F5603018BFA5
:104260000120F8BD002CF6D1D6E902239A4204D8E9
:104270001F2A02D9B3F5804FEDD90020F1E700BF26
:104280000000002020F60100F7B5CDE900016946E5
:1042900042F208009DF8207016461D46FFF750FFB9
:1042A000044668B97FB9BFF35B8F0C4B53E8001F1E
:1042B00041F0040143E80012002AF7D1BFF35B8FFD
:1042C000204603B0F0BD694642F20900CDE9006521
:1042D000FFF736FF0028E6D00446F1E7280000206B
:1042E0002DE9F04FD0F810907D4EB9F1000487B061
:1042F00005460F4692469B4618BF0124BFF35B8FCD
:104300003368BFF35B8F590740F1CA80FFF77CFF2A
:1043100060B96FF015043846002340F201119A4548
:1043200040F0C780204607B0BDE8F08F284608F06F
:10433000D5FB80460028ECD0BFF35B8F56F8AC2C41
:10434000BFF35B8FC2F30023D20500F1AC80CDE94F
:104350000333CDF81330AB686868ADF80830EB680C
:10436000ADF80A3008F0BEFB8DF81500BFF35B8F87
:1043700056E8003F23F4807346E80032002AF7D164
:10438000BFF35B8F2A7806F8BC2C06F8652C6968A9
:1043900022460DF10D03A6F1BC00FFF743FE0446D3
:1043A0000028B8D1A6F1B303B9F1000F21D02A69D2
:1043B000116846F8B31C9188998092799A716B685C
:1043C000980718D0B9F1000F1CD013F0100F0CBFD4
:1043D000012304238DF80C302B691A68CDF80E20C8
:1043E0009A88ADF812209B798DF814304FF00008B0
:1043F0000BE03C4ADCE7990502D4BBF1000F2BD05F
:10440000022300E04B468DF80C304FF0FF304FF0A8
:10441000FF31FEF701FF0446002847D00F2202A912
:104420000C3008F063FA2146002242F20600FFF742
:1044300049F8044600287FF46EAFB9F1000F0FD0A1
:104440002948012108F078FB0446A8B1274A2848EA
:10445000012108F0D2F85EE703238DF80C30C5E7A0
:10446000109BCDF800805A4651463846FFF70CFFA6
:1044700004460028E4D04EE76A681E4812F00302A2
:1044800018BF0122092108F03CFB42460A2108F02E
:1044900038FB2A790C21C2F3800208F032FB3AE79C
:1044A0006FF00A0437E76FF0770434E76FF06804C1
:1044B00031E702888A4204D1426812B11278D207E9
:1044C00002D4013308302AE70B490C4809F073F98C
:1044D0004FF470220023094806F036FA22E700BFA5
:1044E000D400002020F601001800002033F4010061
:1044F000F4DF0100280000203145010030000020D9
:1045000010B50A4C204608F03DFBBFF35B8F2369D2
:10451000BFF35B8FC3F30020DB0505D520460021E8
:10452000BDE8104008F008BB10BD00BF1800002017
:1045300010B5FFF7E5FF034630B1044A0448BDE873
:104540001040022108F062B810BD00BF4EF4010017
:10455000F4DF010000F1070C2CF0030C10B4541E22
:104560001860A4B2ACF80020023A93B201FB04F246
:104570004FF0000C40F802C074B103FB011403FBC0
:1045800001F22044121B4FF6FF7C013B9BB26345B6
:104590008050A0EB0100F8D110BC704703460068C2
:1045A00010B102680AB91A60704700F1070C2CF0CC
:1045B000030CD11DBCF800C021F003010CF1FF3C3D
:1045C000A1F800C0EFE700BF0B687BB1073323F011
:1045D00003031A88013292B20346D1F800C043F8AF
:1045E00007CB23F003031A80086070470122F3E72A
:1045F000531E11449BB242B1DB430138CA1811F873
:10460000013D00F8013F9142F9D17047014402E0B9
:1046100010F8013B1BB98842FAD1002070470120F5
:10462000704700BF10600860704700BFD2F800C03C
:10463000CCF80000D2F800C0CCF80410106070472D
:10464000884203D01AB14368136070470020704756
:104650000B68834209D02AB1586810601A680A6052
:1046600018467047002BF9D1FAE70023F8E700BF9E
:104670002DE9F8430E4EDFF83C904FF090080C27E0
:1046800006F1200409EB08052A1D29462046083CAE
:10469000FFF7C8FFB442A5F10C05F5D1043F3B1D5F
:1046A000A8F13008A4F12006EAD1BDE8F88300BFE4
:1046B000280E0020740E0020F8B506461C460D4654
:1046C00002B322786378D21A12F0030229D1294F5B
:1046D00071004FEA450C3144AC44890001EB0C11E8
:1046E00001330431DBB27A18606823702146FFF78A
:1046F0009DFF214B0122294630465A5503F0E0FF29
:104700000020F8BD03F0C6FF0028DAD02946304665
:1047100003F0B2FF637860B92278D21A12F0030274
:10472000D5D0012A03D00133DBB22370E1E7104674
:10473000F8BD05EB450206EB46010E4F120102EBF8
:1047400081023A447100907AD27A90424FEA450C45
:1047500005D02078C01A10F00302E2D1BBE722781E
:10476000D21A920702D00233DBB22370D4E90203DB
:104770009847C5E7500E0020CC0D00202DE9F04FE2
:10478000DFF8609119F8003089B0002B59D0DFF8BC
:1047900058A1C0EB00134FF0000B00EB40079B004B
:1047A0000324CDE904BB09F800B00AEB0717039313
:1047B00002948346B8460023B96A58F8240F079339
:1047C00007AAFFF73DFF044607AAB4B1079D2E785C
:1047D0006978761A06F00306012E35D02B78591A1F
:1047E00001F003010129DBB23DD1D7E90901FFF74F
:1047F00027FF044607AA002CE8D197F82E3097F837
:104800002F209A4203D087F82F300123049397F882
:104810002C3097F82D209A4203D087F82D300123B1
:104820000593029B5D1EEBB2FF2B0293A7F10C07D1
:10483000C0D10499D846DDF814B011B1BBF1000F16
:1048400045D009B0BDE8F08F01396970079BD3E905
:1048500002029047079D2A786978D3B2521A02F073
:104860000302012A21D0B86A019300224146FFF7D2
:10487000EFFE6C60019B6A786B702B789B1A03F0DB
:104880000303012B08D0D7E9090107AAFFF7D8FED7
:10489000012E044698D10EE0039B6A701A1D29462A
:1048A00020465244FFF7C2FEEDE7D7E9090107AA07
:1048B000FFF7C6FE0446029B8BB1012359465846BA
:1048C00009F80B3003F0FCFE09B0BDE8F08F5A4642
:1048D0004146404609B0BDE8F04F03F0C1BE002C90
:1048E0008BD0EAE7CC0D0020500E00204B1EDBB22F
:1048F00071B1411E00EB030C002011F8013F23B100
:104900005A1E01301340C0B2FAD16145F5D170474B
:104910000846704770B5057E0468FF2D2AD02A46E8
:104920004FF0000C07E09E6814F80E30FF2B154680
:10493000B4441FD01A4602EB420391424FEA031ED1
:1049400004EB0313EFD18D4202D114F80E2002764E
:1049500014F80E20986805EB45052D01FF2A6255D5
:1049600006D002EB420204EB021293680344936008
:10497000604470BD002070BDA2EB010C1CF4000F60
:1049800010B4836844690AD12CF07F4C6344A3427D
:104990000DD8E41A00234461836010BC7047891A63
:1049A00021F07F418B4208D95B1AA342F1D91B1B2E
:1049B00000244461836010BC70470C44E41AE9E7AA
:1049C0002DE9F041244DBDF824708E462C2101FBC9
:1049D0000055696801EBCE0011F83E60C47841785B
:1049E00004F1010C5FFA8CFC664598BF4FF0000C97
:1049F00061452DD0466804EB4404210106EB041404
:104A00004FF0040806F801806360069BA360079BD3
:104A1000E360089B23610A9BA3610F9B63620B9B6E
:104A2000E3610C9B23620D9BA3620E9BE362022356
:104A30006270A782A37080F803C0D5E9083670467B
:104A400098472B4641460022B047A078BDE8F08148
:104A50000120BDE8F08100BF100F00202DE9F04FCC
:104A600087B00346427A019000685F680290002A8E
:104A700000F0EF80531EDBB207EBC3038A460393BB
:104A80000597039B5A6893F801B00492BAF1FF0F9F
:104A900057D00AEB4A04029BCDF800A04FEA041954
:104AA000002513F809A003EB0414019BFF272770CE
:104AB0001E681B7E06EB0908BB42D8F808100DD112
:104AC000C1E0091A05D1B8F81E90BEF81EE0F14504
:104AD0007AD8B25CFF2A1F4665D0134603EB430227
:104AE00006EB021E4FEA430CDEF8080088424FEA4C
:104AF0000212E6D9FF2FC8F8081088F800305DD1FF
:104B0000DDE900200276634406EB03139A68521A2B
:104B10009A60A37801336370002DB7D0AB6A4FF071
:104B200000022A70AA7013B1E96A002098476368EE
:104B3000002BABD1AB6A2362EB6A6362BAF1FF0F61
:104B4000A7D1039B049E99780BEB4B030BF101005B
:104B500059454FEA03125FFA80FB06EB031569D053
:104B6000039B1878B35C584508BF4FF0000B042B2B
:104B7000EAD16978029801EB410300EB03144FEA94
:104B800003196078A378984220D04FF00003B35403
:104B9000AB6A4FF001020120AA700BB1E96A984795
:104BA000039B9978D0E79C444FEA0C1C009BC8F803
:104BB000081088F8002006F80C30AAE707EB470732
:104BC0003F01009AF2559EE7014693E7019AAB8AAE
:104BD000009151694FF6FE72934207D04FF6FF7273
:104BE0009B1AB3FA83F35B0984F82C306B6AA362D7
:104BF000EB6863602B69236200226262AB8A4FF626
:104C0000FD70834288BF1346A383AB69A361EB6940
:104C1000E3602B6A2361AB68A36062616A68204627
:104C2000FFF7AAFE4FF00003E383E37843F00103AC
:104C3000E3703AE7039A517005999142A2F1080393
:104C400007D003931DE706F80930DDE9003213763B
:104C50005FE707B0BDE8F08F2DE9F04F447E0123F8
:104C60008FB08376002C40F0BA80037EFF2B814604
:104C700000F0B48003F0D0F9D9F81420D9F81C3032
:104C800099F81880D9F80060801A20F07F4B5B45B6
:104C900094BF00230123B8F1FF0F0393A2467CD0F9
:104CA000049408EB480806EB08144FEA0818A368B8
:104CB0005B4571D8A27816F80880ABEB030B9A44D9
:104CC00063789B1ADDB2012D63D1A06AA3690293B8
:104CD000002800F019810168002900F08380002B72
:104CE00000F02A81039B002B00F04A81037A5A07C7
:104CF00000F03B81037A23F007030372E78BE2782D
:104D000022F001027B1CE27094F82C209BB2E3831A
:104D1000002A00F0E080A28B9A4280F0DC80A06A3A
:104D2000002800F06581037A03F00703012B00F0EF
:104D3000D280002741684760A36A1A7A67F30202AB
:104D40001A72A278E768013AA27017B36369D9F8BA
:104D5000142094F803C0AAEB0303134423F07F400C
:104D6000626A23690CF0010C002D40F0DF80B4F87A
:104D70001EE0CDE900C37346B847DDE90223002AEF
:104D800018BF43F001030393E378E58365F3000361
:104D9000E370B8F1FF0F84D1049C99F80B3099F8B7
:104DA0000A209A4208D10132D2B2022A1ABF14460E
:104DB0002346002389F80B4009EB83030022C3F844
:104DC0000CA0D9F8244089F81A204B46012204216E
:104DD0000320A4460FB0BDE8F04F604784760FB0C3
:104DE000BDE8F08F029B002B00F08C80039B002B12
:104DF00080D1D9F81C309A45FFF47CAFB8F1FF0F91
:104E00007DD0029BE78B09939C46A38B6168CDF80C
:104E100018B0BB429ABFFB1A9BB23B4603FB01137F
:104E2000CDE907A805934FF0000E43460B92DDF83D
:104E300024800C95CDF824C0A3468A4684460D975D
:104E4000CDF8289003EB430306EB03121B01916896
:104E50008E44F04548D3906A946900283FD000689A
:104E600000283CD0D58B978B5068AF4240F293809E
:104E7000002840F09780BCF1000F32D08146DCF86A
:104E8000000028B1029919B97444A04280F0BD8095
:104E9000AF4226D8D0789BF8032000F0010402F03E
:104EA0000105A54205D34240D1071AD4B9F1000F3C
:104EB00017D060465C46DDF820800C9DDDF824C0EC
:104EC0000D9FDDF82890DDE906BA002840F09680B5
:104ED000CDF808C013E7A378013BA37059E7002C75
:104EE000C0D1F35CFF2BADD16046DDE9088C5C4698
:104EF000DDE906BA0B9ADDF82890CDF808C0002845
:104F000000F09080002514E7029B5BB3039B002B0D
:104F10007FF4F4AED9F81C309A45FFF4EFAEB8F147
:104F2000FF0F7FF46EAF03990D460BE7CDE900C389
:104F30004FF6FF73B8472CE7039B63B9D9F81C30D1
:104F40009A4508D3B8F1FF0F54D04FF0040CE78B0B
:104F5000CDF824C059E704230293037A5A077FF45B
:104F6000C9AE02E0029D0021ECE6A18BE28B9142EA
:104F70003FF6C0AE012262F302030372E78BBEE686
:104F8000D9F81C309A45FFF4B1AEB8F1FF0F7FF4A9
:104F900038AF039DCDE668B9BCF1000F7FF46EAF6A
:104FA000E14677E7BAF1000F20D1BCF1000F98D0AD
:104FB000D14664E7BAF1000F12D0A5EB07091FFA3A
:104FC00089F9411A00FB0911059888422CBF4FF05E
:104FD00000094FF00109BCF1000F7FF450AF57E713
:104FE000D146BCF1000F7FF44AAF51E7A946E8E78C
:104FF000A278B8E70423039D02939AE60168CDF8EE
:1050000008C000293FF476AE70E65C460146DDE953
:1050100006BA6046DDF820800C9DDDF82890DDF8AA
:1050200024C0ECE7054601468CE600BF837E002BDA
:1050300040F034832DE9F04F477E8DB08346002F3A
:1050400076D1837AC27A012141769A4241690791E9
:1050500000F025830133DBB2022B12BF1A463A4619
:105060003B4600EB82028372D268079B0592134491
:1050700023F07F43436101259BF81830089302F029
:10508000CBFF9BF80920DBF800300193531EDBF8BF
:1050900004600490DBB2002A00F01F84CDE90A7599
:1050A00006EBC30AFF2303930696D946DAF8047089
:1050B0004FF0000B9AF803109AF8025005EB4504E4
:1050C0006B1CA9424FEA0418DBB207EB041460D052
:1050D0009AF800209A4208BF00238AF8023017F895
:1050E0000820042A3AD9082A2CD86178019801EBC3
:1050F000410300EB03161B01B078029373781B1A6F
:1051000013F0FF032CD1062A1CD199F81B308B42D7
:1051100050D007F808B0A36A84F802B0002BC9D0B9
:10512000E16A002098479AF803109AF80250C5E700
:10513000446A0421034601220420A4460DB0BDE8C0
:10514000F04F604707F808B04FF00103A370A36A5F
:10515000002BAFD0E16A01209847ABE71D46ADE7D1
:10516000052A1ED162684AB9A2683AB9E2682AB92A
:1051700022691AB9626932F07F42E3D0012B29D04B
:105180000421D9F824404B4601220846A0478AF85A
:105190000250069A5245AAF1080300F0E0809A46B0
:1051A00084E7012B00F0A480062AE9D199F81B308E
:1051B0008B42AED16168D9F814208B1A1D0240F1E0
:1051C000BD80059B521A22F07F4293428CBF9B1AEE
:1051D0000023B7E04846FFF79DFBB060D9F814E024
:1051E000049B059AA3EB0E0323F07F4313449842DC
:1051F00040F2AF80C01A7368002B46D0A38A002B00
:1052000043D0013B9AB2A2827568F38BA84218D8AA
:105210001BE0726ADFF8A4C28BB2A949511861453C
:10522000A0EB050006D902F1E87202F5D43202F5CE
:10523000A5720138316AF383521A72628542A28ADA
:1052400003D2934203F1FF31E3D89A421CD9316A69
:10525000099706E0726201339BB2F383A28A9A42F5
:1052600011D9726ADFF858C2944F0A449444BC457D
:105270002844EFD8A2F1E872A2F5D432A2F5A572C3
:1052800072620130E7E7099FB2836368B16A034441
:10529000B360A26873691344736129B10B681BB1D1
:1052A000D4E901329B1A4B60049A71463046FFF7ED
:1052B00063FBE268B3691344B361226993428CBF14
:1052C0009B1A0023B361A37D1BB1F27863F3000244
:1052D000F270E37D13B1013B86F82C30DDE901214A
:1052E000039B53547378627803920133737010E711
:1052F000062A3FF40AAF4846FFF70CFBB378B060CC
:10530000737099F81B2063789A427FF402AF17F804
:105310000830062B3FF44EAFFF2389F81B3017F8F7
:105320000830062B3FF446AF082B3FF443AF0499F7
:10533000D9F814208B1A1D023FF543AF059A23F0CC
:105340007F431344D9F81C209A4288BFC9F81C3007
:10535000DFE6726913441B1A736100204BE7DDE935
:105360000A75CB469BF81860002D00F01781049B4E
:10537000079ADBF800809B1A23F07F4A089BF51AF6
:1053800018BF0125FF2E08BF2C465FD04FF0000943
:10539000CDF804900497DDF81490059506EB4605CA
:1053A00008EB05142D01A2684A4500F26882019BB2
:1053B000A178E08B1344019363785B1ADBF81C102F
:1053C0008A4234BF891A0021A9EB0209AAEB020A1A
:1053D00024BF4FF0FF328BF81B20CBF81C10A16AC2
:1053E000A769DBB2002900F0CC800A68002A00F02F
:1053F000B480002F40F0B480022B00F03B820022EA
:10540000A26018F805208BF818206168A26A0029AC
:1054100074D122B1127A02F00702012A52D03BB1B4
:10542000012B00D020B1236A13B1616A0120984793
:10543000A37863709BF81860FF2EAFD1DDE9047587
:10544000089BFF2B0CBF2C4645F0010403995846DE
:10545000FFF704FBCDE90247DBF800A0CDF804B06C
:105460004FF0000C019B187EFF2800F039820446A3
:105470004FF0FF0800E01C4604EB44030AEB031561
:105480001B01A96A8E4629B10A7A02F00702012A95
:1054900000F00B811AF80330FF2BA046EBD1DDE9B9
:1054A0000247DDF804B0BCF1000F40F09280089B89
:1054B000834240F08E80002C7BD08EE0592B177FEA
:1054C0005A2B17FFA378C4F808906370079B019AC2
:1054D000DBF814109A1822F07F422046FFF74CFAAE
:1054E000039B08F80530637803960133DBB26370E1
:1054F0009BF81860FF2E7FF451AF9FE722B1137A1B
:1055000003F00703012BDDD0B4F81EE0BEF1000F5D
:1055100040D1B4F81CE07046D4E908C300220294DC
:10552000BC4FBD4C6344DF19A74200F1FF300A4471
:1055300006D8A3F1E873A3F5D433A3F5A57301321C
:10554000441CEDD1029C94F82C706362002F00F093
:105550008480A260A4F81EE0B8E7002F3FF44FAFAC
:10556000022B7FF44CAF00287FF449AF0A7A02F097
:105570000702012A3FF443AFCBF81C708BF81B6085
:105580003DE7002F3FF43BAF022B7FF438AF0028FC
:10559000F2D034E7A37863700020BDE75846039942
:1055A000FFF75CFA9BF81800089B83420ED19E42DD
:1055B0000CD100238BF819309BF81A30002B49D0FE
:1055C000DBF824405B4601220321B5E5FF2800F00B
:1055D0009281089BFF2B00F06B81DBF8003000EB21
:1055E000400003EB0013D3F80880B8F1000F59D046
:1055F00002F012FD0A260446DBF81430E21A22F00B
:105600007F42904506F1FF3602F103011AD9414568
:105610002CBF5B18434423F07F452846DBF8283035
:10562000984702F0F9FC031B2D1B23F07F43023344
:1056300025F07F45AB4206D90EB10446DCE700DE1B
:105640000446D9E7012700238BF819309BF81A305C
:105650003B43B5D10DB0BDE8F08F92457FF679AFF1
:105660006C48CDF8088006946B4C634403EB00084B
:105670000137A0450A44BFB206D8A3F1E873A3F5E9
:10568000D4330132A3F5A5739245EDD8069CDDF81D
:105690000880636277441FFA87FE5AE770473D46E9
:1056A0000597E9E48BF819808AE7AA68002A40F098
:1056B0003A81D5F818B0BBF1000F06D10A68002A6C
:1056C00000F03D818E464FF0040BDEE90029914544
:1056D00080F0E380A2EB090C1AF80320FF2A00F007
:1056E000DC800199CDF81C80C969ACEB0B000E1D64
:1056F0000021CDE90594049099460F4608463446AA
:1057000013460BEB0708C4453FD303EB43030AEBF7
:1057100003121B019668304404287FD9061F3E44BB
:10572000664528BF66460BEB04018C450ED3B04599
:105730000CD8A969002900F08C809EF80810090790
:1057400000F18780B6EB0B0140F0BD80916A21B17A
:10575000097A01F00701012971D0916900296ED001
:105760005268002A6BD0AA6907440431CC19002A78
:1057700063D09EF808201207ACEB0B0100F1AA8061
:105780001AF803300020FF2BBBD14B46DDE9064859
:10579000DDF814908944CEF804901AF803B0BBF1F8
:1057A000FF0F5A4618BF4FF0FF0C01D1CDE0024663
:1057B00002EB42000AEB00174FEA4209BE688E4234
:1057C0004FEA001080F0C3801AF80000FF289446CA
:1057D000A1EB0601EBD1A960B8F1FF0F00F09F80AB
:1057E00008EB480109010AF801B04A4412011AF80D
:1057F00002100AF803100AF80240EB8B013BEB831E
:105800009EF80830022262F302038EF808304FF04F
:10581000010C27E65A2B17FF592B177FAE6996B15B
:105820009EF8086016F008063FF47DAF9469049A6C
:10583000074404343C44A242A2D32146A0E71AF80C
:10584000033000219FE791690744043139440C4635
:1058500096E7002C3FF47AAFA6EB0B06A642FFF4C6
:1058600075AF4B46DDF8149022469144DDE90648B9
:10587000114690E700287FF4C2AD042776E64B4638
:10588000D21AA260059D9BF81830089A049F934293
:105890000CBF2C4645F00104D8E5CEF804901AF868
:1058A0000330FF2B08BF00214FD00023AB60A4E7DB
:1058B00002F0B2FB044602F08BFB40B99BF81800E3
:1058C000CBF8144089E6A142FFF440AF5DE79BF8B6
:1058D000180082E60A460021ADE7FF23039341E565
:1058E000029C9B46BCF1000F05D1089BFF2B02D107
:1058F000002C3FF45EAE02F07BFB044600287FF4F0
:1059000058AECBF81C0002F087FB8BF81940CBF89F
:1059100014009BF81A30002B3FF49CAE50E601991E
:1059200081F818B061E700DEA96AD5F818B08E4694
:10593000BBF1000F7FF4C9AE00297FF4BFAE00DEDB
:105940004FF0040BD5F828E0BFE6A96055E7761ABA
:10595000BCF1FF0FBE60A9603FF44FAF1AF803B06F
:1059600062464FEA4C0937E7F8B5069E9DF81C5091
:10597000089CB8B9144F3A605A1E39727B727E6027
:10598000D2B273B106EBC2025460114612F8083964
:105990008E4203EB4300A5EB030304EB0014DDB2DE
:1059A000F2D10DB10120F8BD099B3B620A9B7B62DD
:1059B000FF240B9BBB623C7602F02EFB7D8178615D
:1059C000FC76FD612846F8BD100F002040B9064B5B
:1059D0001A7EFF2A01D1187270476FF00F007047CE
:1059E0006FF01500704700BF100F002010B4074B78
:1059F0002C2202FB00335C6A2CB1A446012210BCAD
:105A000003210220604710BC704700BF100F002028
:105A100010B58AB00C9C00940D9C01940E9C0294CD
:105A2000BDF83C400394109C0494119C0594129C76
:105A30000694139C0794149C089400240994FEF780
:105A4000BFFF0AB010BD00BF10B4BDF810400494F1
:105A500010BCFEF7B5BF00BF2DE9F047244DBDF8DF
:105A60002C809DF830709DF83CE02C2404FB005500
:105A70006C6804EBC10014F83190C478467804F1E6
:105A8000010C5FFA8CFCE14598BF4FF0000C6645B5
:105A90002AD0466804EB44044FEA041906EB0414C8
:105AA0004FF0050A06F809A06360089BA360099BF4
:105AB000E3600A9B23610D9BA3620E9BE3620223BA
:105AC0006270A4F81480A77584F817E0A37080F8BA
:105AD00003C02B6A6E6A084698472B4600220421B1
